:020000040800F2
:1000000000500020F5120008D50E0008DD0E000893
:10001000E50E0008ED0E0008F50E000800000000D7
:10002000000000000000000000000000FD0E0008BD
:10003000090F000800000000150F0008210F00083C
:100040003D1300083D1300083D1300083D13000850
:100050003D1300083D1300083D1300083D13000840
:100060003D1300083D1300083D1300083D13000830
:100070003D1300083D1300083D1300083D13000820
:100080003D1300083D1300083D1300083D13000810
:100090003D1300083D1300083D1300083D13000800
:1000A0003D1300083D1300083D1300083D130008F0
:1000B0003D1300083D1300083D1300083D130008E0
:1000C0003D1300083D1300083D1300083D130008D0
:1000D0003D1300082D0F00083D1300083D130008D4
:1000E0003D1300083D1300083D1300080000000008
:1000F0000000000000000000000000000000000000
:0C01000000000000000000005FF808F1A3
:10010C0010B5054C237833B9044B13B10448AFF345
:10011C0000800123237010BD5C0000200000000053
:10012C001838000808B5034B1BB103490348AFF35B
:10013C00008008BD00000000600000201838000896
:10014C00034613F8012B002AFBD1181A013870470B
:10015C0080B582B000AF254B3B60A82200213868E7
:10016C0002F0C6FE3B6803221A613B6803225A6107
:10017C003B681F4A9A613B681E4ADA613B684FF440
:10018C0080621A623B6800229A623B6800225A62C3
:10019C003B680022DA623B68154A1A663B68164ACD
:1001AC005A663B6810229A663B6800221A673B68C5
:1001BC000022DA663B6800225A6700237B600CE061
:1001CC007B68C3F10F030D4AD15C3A687B6813441A
:1001DC000A461A707B6801337B607B680F2BEFD962
:1001EC0000BF00BF0837BD4680BD00BF78000020AF
:1001FC00303800082001002020050020703A00084B
:10020C0080B58AB000AFF860B9607A6000233B62B9
:10021C00FB68DB68FB61FB681B69BB61BA69FB6946
:10022C009A4205D9BA69FB69D31A013B7B6207E094
:10023C00FB689A68B969FB69CB1A1344013B7B6272
:10024C00FB689A68FB69D31A7A6A934228BF1346F3
:10025C007B627A6A7B68934228BF13467B62FB6899
:10026C005A68FB6913447B617A6AB968786902F051
:10027C0073FE3A6A7B6A13443B62BA687B6A134426
:10028C00BB607A687B6AD31A7B60FA697B6A134419
:10029C00FB61FB689B68FA699A4201D10023FB6100
:1002AC00FB68FA69DA607B68002BB4D13B6A1846AC
:1002BC002837BD4680BD80B588B000AFF860B96006
:1002CC007A60FB68DB68FB61FB689A68FB69D31A90
:1002DC00BB61BA697B689A420FD9FB685A68FB69A3
:1002EC0013443B617A68B968386902F035FEFA69E3
:1002FC007B681A44FB68DA601DE0BB697B61FB68B4
:10030C005A68FB6913443B617A69B968386902F031
:10031C0023FE7A68BB69D31A7B61FB685B683B611F
:10032C00BA68BB6913447A691946386902F014FE3D
:10033C00FB687A69DA6000BF2037BD4680BD80B4A7
:10034C0087B000AF78607B681B693B617B68DB68BA
:10035C00FB603A69FB689A4208D87B689A68FB682C
:10036C00D21A3B691344013B7B6104E03A69FB6898
:10037C00D31A013B7B617B6918461C37BD4680BC98
:10038C007047000080B588B000AFF860B9607A6043
:10039C00BB68BB61FB685A1C13465B001344DB0053
:1003AC001F4A13447B617B695B69022B29D0022BAA
:1003BC002ED8002B02D0012B13D029E07869FFF73F
:1003CC00BEFF38613A697B689A4202D20023FB6116
:1003DC0021E07B68FB617A68B9697869FFF76BFF8C
:1003EC0019E07869FFF7ABFF38617A683B69934293
:1003FC0028BF1346FB61FA69B9697869FFF75BFF9F
:10040C0009E07A68B9697869FFF7FAFEF86102E0E9
:10041C000023FB6100BFFB6918462037BD4680BD39
:10042C007800002080B588B000AFF860B9607A60C1
:10043C000E4BFB61FB691B78DBB2532B01D0FFF732
:10044C0087FEEFF311834FF0200181F31188BB611C
:10045C007A68B968F868FFF795FF7861BB6983F330
:10046C0011887B6918462037BD4680BD7800002076
:10047C0080B584B000AF786039603868FFF760FEF3
:10048C00F860FA6839687868FFF7CCFF03461846BD
:10049C001037BD4680BD80B500AFFFF759FE00BFD9
:1004AC0080BD80B483B000AF78607B684FF6FF727C
:1004BC001A8000BF0C37BD4680BC704780B483B037
:1004CC0000AF78600B46FB707B681B881B0A9AB2E6
:1004DC007B681B881946FB784B40DBB2054931F829
:1004EC00133053409AB27B681A8000BF0C37BD465C
:1004FC0080BC7047843A000880B500AFFFF7CBFF93
:10050C0000BF80BD80B582B000AF786079680020F4
:10051C00FFF7AEFF00BF0837BD4680BD0FB480B5F6
:10052C00C2B000AF07F58A7207F58473A3F5827326
:10053C001A6007F58473A3F5827307F108001B6832
:10054C00D7F810214FF4807102F0C4FC07F10803B6
:10055C0019460020FFF78CFF00BF07F58477BD46D6
:10056C00BDE8804004B0704780B582B000AF7860C1
:10057C0079680020FFF77CFF03490020FFF778FF24
:10058C0000BF0837BD4680BD3C38000880B582B03E
:10059C0000AF78607B681B68094A93420CD101213B
:1005AC00084800F02BFD084B4FF400521A61012251
:1005BC000449064801F011FF00BF0837BD4680BD55
:1005CC000038014084050020001001403005002057
:1005DC0080B582B000AF78607B681B68044A934298
:1005EC0001D100F0ADFD00BF0837BD4680BD00BF96
:1005FC000038014080B584B000AFF860B960134694
:10060C00FB80FB881A460021B86802F071FCFA687E
:10061C000349B86802F00EFC00BF1037BD4680BD20
:10062C004038000880B582B000AF78600B467B8004
:10063C007B881A467968034801F09AFE00BF083798
:10064C00BD4680BD3005002080B582B000AF78601B
:10065C000B467B807A88134B1B681344114A13603A
:10066C00114B1B680133104A13600E4B1B680E4A6A
:10067C00126819460D48FFF751FF0A4B1B681422EC
:10068C000B491846FFF7B6FF0948FFF759FD03461B
:10069C009BB21946064800F0E1FC00BF0837BD4686
:1006AC0080BD00BF7C050020800500204438000878
:1006BC008805002080B582B000AF78600B467B8047
:1006CC000348FFF751FF00BF0837BD4680BD00BF90
:1006DC006838000880B500AF00F02CFE00F054F82C
:1006EC00FFF70AFF00F07EFE03461D4A136000F080
:1006FC00B1F800F085F81B4A1B491C4800F056FC69
:10070C001B4B9B691A4A43F018039361194B5B68A6
:10071C00184A23F470035360164B5B68154A43F474
:10072C0000135360144B5B68134A23F0F0035360BF
:10073C00114B5B68104A43F0800353600E4BDB682F
:10074C000D4A43F40073D36001220C490C4801F0AC
:10075C0044FE0C48FFF7D6FE00F0A6FCFCE700BFF9
:10076C007805002031060008C1060008550600086F
:10077C000010024000100140000C014084050020D4
:10078C00300500207838000880B590B000AF07F134
:10079C00180328220021184602F0AAFB3B1D002258
:1007AC001A605A609A60DA601A610223BB610123F5
:1007BC00BB621023FB6200237B6307F1180318460E
:1007CC0001F076F90346002B01D000F083F80F23DB
:1007DC007B600023BB600023FB6000233B61002394
:1007EC007B613B1D0021184601F0E4FB0346002B06
:1007FC0001D000F06FF800BF4037BD4680BD00004F
:10080C0080B500AF114B124A1A60104B4FF4E13215
:10081C005A600E4B00229A600C4B0022DA600B4B94
:10082C0000221A61094B0C225A61084B00229A6172
:10083C00064B0022DA61054801F04AFD0346002B05
:10084C0001D000F047F800BF80BD00BF300500208C
:10085C000038014080B586B000AF07F108030022D4
:10086C001A605A609A60DA60184B9B69174A43F019
:10087C0010039361154B9B6903F010037B607B683D
:10088C00124B9B69114A43F0040393610F4B9B6914
:10089C0003F004033B603B6800224FF400510C480A
:1008AC0001F0EEF84FF40053BB600123FB60002312
:1008BC003B6102237B6107F108031946044800F0F1
:1008CC005BFF00BF1837BD4680BD00BF0010024063
:1008DC000010014080B400AF72B600BF00BFFDE74E
:1008EC0080B588B000AFF8607A601A460B467B8101
:1008FC0013463B813B891A460021786802F0F8FACE
:10090C000023FB827B89002B08D07B89B3F5806F99
:10091C0004D87A893B8904339A4204DD4048FFF7B6
:10092C00F1FD022378E007F116031846FFF7B9FD35
:10093C000023FB83FB8B7A681344AC221A70FB8B6D
:10094C000133FB837B891B0A99B2FB8B7A681344B6
:10095C00CAB21A70FB8B7A6813441A7807F1160323
:10096C0011461846FFF7AAFDFB8B0133FB83FB8B6B
:10097C007A6813447A89D2B21A70FB8B7A68134462
:10098C001A7807F1160311461846FFF797FDFB8BF3
:10099C000133FB830023BB6117E0BB69FA681A447F
:1009AC00FB8B79680B4412781A70FB8B7A681344B2
:1009BC001A7807F1160311461846FFF77FFDFB8BDB
:1009CC000133FB83BB690133BB617B89BA699A42F2
:1009DC00E3DBFB8A1B0A99B2FB8B7A681344CAB21D
:1009EC001A70FB8B0133FB83F98AFB8B7A681344F7
:1009FC00CAB21A70FB8B0133FB83FB8B7A681344EE
:100A0C00BB221A70FB8B0133FB83BB6AFA8B1A80F7
:100A1C000448FFF777FD002318462037BD4680BDFC
:100A2C0084380008A838000880B586B000AFB960DB
:100A3C007A603B600346FB730123FB75BB6A1B7832
:100A4C00062B00F2A78001A252F823F0750A0008C9
:100A5C009B0A0008B90A00080D0B0008450B00089A
:100A6C00670B0008850B00087B6800221A803B6826
:100A7C0000221A80FB7BAC2B06D1BB6A01221A70B8
:100A8C00786AFFF70EFD88E00423FB7585E0FB7B9D
:100A9C009BB21B029AB23B681A80BB6A02221A7084
:100AAC00FB7B1946786AFFF709FD76E03B681A88EC
:100ABC00FB7B9BB213449AB23B681A80FB7B1946B2
:100ACC00786AFFF7FBFC3B681B88002B09D03B685E
:100ADC001B88B3F5806F04D83B681B883A8C9A420C
:100AEC0007D2BB6A00221A707B6800221A8002238C
:100AFC0054E07B6800221A80BB6A03221A704CE017
:100B0C007B681B881A46BB681344FA7B1A707B6897
:100B1C001B8801339AB27B681A80FB7B1946786A72
:100B2C00FFF7CCFC7B681A883B681B889A4233D34E
:100B3C00BB6A04221A702FE0FA7B7B6A1B881B0AA3
:100B4C009BB2DBB29A4204D0BB6A00221A70032318
:100B5C0024E0BB6A05221A701FE0FA7B7B6A1B88B3
:100B6C00DBB29A4204D0BB6A00221A70032315E050
:100B7C00BB6A06221A7010E0FB7BBB2B05D1BB6A4B
:100B8C0000221A700023FB7507E0BB6A00221A7062
:100B9C00052303E000BF00E000BFFB7D18461837BB
:100BAC00BD4680BD80B485B000AFF860B960134617
:100BBC00FB80BB68002B10D0FB68BA685A60FB68DE
:100BCC00FA881A810021FB680A465A80FB680A469B
:100BDC001A80FB6800229A7200E000BF1437BD46F1
:100BEC0080BC704780B483B000AF786039607B689C
:100BFC001B889AB27B685B889BB29A4201D1002316
:100C0C001CE07B685B687A68128892B213441B788C
:100C1C00DAB23B681A707B681B889BB201337A6826
:100C2C00128992B293FBF2F101FB02F29B1A9AB277
:100C3C007B681A807B6800229A72022318460C3754
:100C4C00BD4680BC704780B586B000AFF860B96017
:100C5C001346FB80F86800F093F803467B82FA8811
:100C6C007B8A934228BF13467B8200237B611DE065
:100C7C00FB685B68FA68128892B21A447B69B9689F
:100C8C000B441278D2B21A70FB681B889BB20133EA
:100C9C00FA68128992B293FBF2F101FB02F29B1AF1
:100CAC009AB2FB681A807B6901337B617B8A7A6913
:100CBC009A42DDDBFB6800229A727B8A1846183751
:100CCC00BD4680BD80B483B000AF78600B46FB702E
:100CDC007B685B889BB201337A68128992B293FB72
:100CEC00F2F101FB02F29B1A7A68128892B29342DB
:100CFC0004D17B6801229A72012317E07B685B6840
:100D0C007A68528892B21344FA781A707B685B88BE
:100D1C009BB201337A68128992B293FBF2F101FB18
:100D2C0002F29B1A9AB27B685A80022318460C373F
:100D3C00BD4680BC704780B586B000AFF860B96026
:100D4C001346FB800023FB820023FB820FE0FB8A0F
:100D5C00BA6813441B781946F868FFF7B3FF0346CB
:100D6C00012B01D1FB8A07E0FB8A0133FB82FA8A53
:100D7C00FB889A42EBD3FB8A18461837BD4680BDD8
:100D8C0080B483B000AF78607B685B889BB21A46F6
:100D9C007B681B899BB213447A68128892B29B1AA7
:100DAC007A68128992B293FBF2F101FB02F29B1A60
:100DBC009BB218460C37BD4680BC704780B485B0DA
:100DCC0000AF154B9B69144A43F001039361124B1E
:100DDC009B6903F00103BB60BB680F4BDB690E4AD8
:100DEC0043F08053D3610C4BDB6903F080537B6081
:100DFC007B680A4B5B68FB60FB6823F0E063FB607D
:100E0C00FB6843F00073FB60044AFB68536000BF4F
:100E1C001437BD4680BC70470010024000000140F2
:100E2C0080B588B000AF786007F1100300221A601B
:100E3C005A609A60DA607B681B68204A934239D109
:100E4C001F4B9B691E4A43F4804393611C4B9B6967
:100E5C0003F48043FB60FB68194B9B69184A43F011
:100E6C0004039361164B9B6903F00403BB60BB68DE
:100E7C004FF400733B6102237B610323FB6107F199
:100E8C00100319460F4800F077FC4FF480633B6168
:100E9C0000237B610023BB6107F11003194609484D
:100EAC0000F06AFC00220021252000F07CFB2520AC
:100EBC0000F095FB00BF2037BD4680BD00380140D7
:100ECC00001002400008014080B400AF00BFFDE7F5
:100EDC0080B400AF00BFFDE780B400AF00BFFDE7FA
:100EEC0080B400AF00BFFDE780B400AF00BFFDE7EA
:100EFC0080B400AF00BFBD4680BC704780B400AF6B
:100F0C0000BFBD4680BC704780B400AF00BFBD467B
:100F1C0080BC704780B500AF00F052FA00BF80BDB6
:100F2C0080B500AF024801F07DFA00BF80BD00BF64
:100F3C003005002080B586B000AF7860144A154BA0
:100F4C00D31A7B617B693B61134B1B68002B02D16D
:100F5C00114B124A1A60104B1A687B6813443A6999
:100F6C009A4207D201F0CCFF03460C221A604FF0D4
:100F7C00FF3309E0084B1B68FB60074B1A687B6862
:100F8C001344054A1360FB6818461837BD4680BDEC
:100F9C0000500020000400009C050020480A00209E
:100FAC0080B400AF00BFBD4680BC704780B584B034
:100FBC0000AFF860B9607A60C8220A490A48FFF7A6
:100FCC00F1FDC82209490A48FFF7ECFD094AB96846
:100FDC00F86800F0C1F8084A7B68136000BF10374E
:100FEC00BD4680BD30070020C4080020F807002053
:100FFC00D00800202D100008DC08002080B582B03D
:10100C0000AF78600B467B807B881A467968034872
:10101C00FFF791FE00BF0837BD4680BDD008002009
:10102C0080B584B000AF78600B467B807B881A4615
:10103C0079680848FFF77FFE0346FB81FA897B88B5
:10104C009A4202D20448FFF75DFA00BF1037BD4642
:10105C0080BD00BFC40800208039000880B582B074
:10106C0000AF78600B467B800C4B1B78DBB2002BFF
:10107C000CD10A4B01221A707988C823084A786867
:10108C0000F098F8054B00221A7002E00548FFF7B3
:10109C0039FA00BF0837BD4680BD00BFE00800200C
:1010AC00A0050020B439000880B582B000AF1D48FF
:1010BC00FFF766FE0346002B0ED005E07B79C822B5
:1010CC001949184600F0C6F87B1D19461548FFF75C
:1010DC0089FD0346022BF1D01448FFF751FE03465D
:1010EC00002B1BD0124B1B78DBB2002B13D1104BF7
:1010FC0001221A70C8220F490C48FFF7A4FD0346C1
:10110C00FB800D4B1B68002B05D00B4B1B68FA8822
:10111C001146084898470948FFF7F4F900BF08370B
:10112C00BD4680BDD008002068060020C408002001
:10113C00C0080020A0050020DC080020DC390008D5
:10114C0080B400AF034B00221A7000BFBD4680BCB8
:10115C00704700BFC008002080B485B000AFF860B5
:10116C00B9607A600C4AFB6813600C4ABB68136068
:10117C000B4A7B6813600B4B00221A700A4B00223F
:10118C001A800A4B00221A80094B00221A8000BFD9
:10119C001437BD4680BC7047EC080020F0080020D6
:1011AC00F4080020E8080020E4080020E6080020ED
:1011BC00E208002080B588B002AFF8607A601A4669
:1011CC000B467B8113463B8100233B823A8979890C
:1011DC0007F11003009313467A68F868FFF780FB59
:1011EC000346FB74FB7C002B03D01548FFF78AF9F0
:1011FC0023E0144B1B68002B1ED0124B1B683A8A41
:10120C001146786898471048FFF77CF900237B61FA
:10121C000AE07B697A6813441B7819460B48FFF780
:10122C007DF97B6901337B613B8A1A467B6993426A
:10123C00EFDB0748FFF798F900BF1837BD4680BDB4
:10124C00043A0008F4080020303A0008383A000844
:10125C00403A000880B588B004AF03463960FB7192
:10126C001346BB80F879194B0293194B0193BB8839
:10127C000093184B184A3968FFF7D6FB0346FB73EB
:10128C00FB7B012B1CD0FB7B012B0ED9FB7B194666
:10129C001248FFF743F9124B1B68002B10D0104B70
:1012AC001B68FA7B104698470AE00E4B1B68002B14
:1012BC0006D00C4B1B68074A1288114638689847B1
:1012CC00FB7B18461037BD4680BD00BFE8080020E8
:1012DC00E2080020E4080020E6080020443A000858
:1012EC00F0080020EC080020FFF75AFE0B480C49D0
:1012FC000C4A002302E0D458C4500433C4188C4266
:10130C00F9D3094A094C002301E013600432A242CC
:10131C00FBD301F0FBFDFFF7DDF970470000002067
:10132C005C000020F43C00085C000020440A002013
:10133C00FEE7000080B500AF084B1B68074A43F07E
:10134C0010031360032000F023F90F2000F008F8BD
:10135C00FFF734FD0023184680BD00BF002002407B
:10136C0080B582B000AF7860124B1A68124B1B78B4
:10137C0019464FF47A73B3FBF1F3B2FBF3F318464F
:10138C0000F03BF90346002B01D001230EE07B68F3
:10139C000F2B0AD8002279684FF0FF3000F003F9C8
:1013AC00064A7B681360002300E0012318460837C7
:1013BC00BD4680BD00000020080000200400002075
:1013CC0080B400AF054B1B781A46054B1B681344C1
:1013DC00034A136000BFBD4680BC70470800002064
:1013EC00F808002080B400AF024B1B681846BD46BD
:1013FC0080BC7047F808002080B485B000AF7860DE
:10140C007B6803F00703FB600C4BDB68BB60BA68BE
:10141C004FF6FF031340BB60FB681A02BB68134313
:10142C0043F0BF6343F40033BB60044ABB68D36032
:10143C0000BF1437BD4680BC704700BF00ED00E014
:10144C0080B400AF044BDB681B0A03F0070318469B
:10145C00BD4680BC704700BF00ED00E080B483B097
:10146C0000AF0346FB7197F90730002B0BDBFB79C0
:10147C0003F01F02064997F907305B09012000FAB7
:10148C0002F241F8232000BF0C37BD4680BC7047E8
:10149C0000E100E080B483B000AF03463960FB711B
:1014AC0097F90730002B0ADB3B68DAB20C4997F945
:1014BC0007301201D2B20B4483F800230AE03B68D8
:1014CC00DAB20849FB7903F00F03043B1201D2B2E4
:1014DC000B441A7600BF0C37BD4680BC704700BF6A
:1014EC0000E100E000ED00E080B489B000AFF860EE
:1014FC00B9607A60FB6803F00703FB61FB69C3F119
:10150C000703042B28BF0423BB61FB690433062BA0
:10151C0002D9FB69033B00E000237B614FF0FF32F3
:10152C00BB6902FA03F3DA43BB681A407B699A4041
:10153C004FF0FF317B6901FA03F3D9437B680B4011
:10154C00134318462437BD4680BC704780B582B023
:10155C0000AF78607B68013BB3F1807F01D301233E
:10156C000FE00A4A7B68013B53600F214FF0FF30BC
:10157C00FFF790FF054B00229A60044B07221A607C
:10158C00002318460837BD4680BD00BF10E000E0C0
:10159C0080B582B000AF78607868FFF72DFF00BF90
:1015AC000837BD4680BD80B586B000AF0346B96034
:1015BC007A60FB7300237B61FFF742FF78617A68E6
:1015CC00B9687869FFF790FF024697F90F3011461A
:1015DC001846FFF75FFF00BF1837BD4680BD80B5CA
:1015EC0082B000AF0346FB7197F907301846FFF73E
:1015FC0035FF00BF0837BD4680BD80B582B000AF57
:10160C0078607868FFF7A2FF034618460837BD4696
:10161C0080BD80B485B000AF78600023FB737B681D
:10162C0093F82130DBB2022B08D07B6804229A633A
:10163C007B68002283F82020012320E07B681B6854
:10164C001A687B681B6822F00E021A607B681B68A4
:10165C001A687B681B6822F001021A607B681A6C9E
:10166C007B68DB6B012101FA02F25A607B68012274
:10167C0083F821207B68002283F82020FB7B18460E
:10168C001437BD4680BC704780B584B000AF78601D
:10169C000023FB737B6893F82130DBB2022B05D05F
:1016AC007B6804229A630123FB7351E07B681B68FF
:1016BC001A687B681B6822F00E021A607B681B6834
:1016CC001A687B681B6822F001021A607B681B6831
:1016DC00224A934229D07B681B68214A934222D02C
:1016EC007B681B681F4A93421AD07B681B681E4A92
:1016FC00934212D07B681B681C4A93420AD07B68C9
:10170C001B681B4A934202D14FF480130EE04FF03A
:10171C0080730BE04FF4803308E04FF4805305E006
:10172C004FF4807302E0102300E00123114A536050
:10173C007B68012283F821207B68002283F820201B
:10174C007B685B6B002B03D07B685B6B786898477E
:10175C00FB7B18461037BD4680BD00BF0800024019
:10176C001C0002403000024044000240580002407D
:10177C006C0002400000024080B48BB000AF786077
:10178C00396000237B6200233B6269E101227B6AA2
:10179C0002FA03F3FB613B681B68FA691340BB61F7
:1017AC00BA69FB699A4240F058813B685B689A4A77
:1017BC0093425ED0984A934275D8984A934258D037
:1017CC00964A93426FD8964A934252D0944A934287
:1017DC0069D8944A93424CD0924A934263D8924A25
:1017EC00934246D0904A93425DD8122B2AD8122BA2
:1017FC0059D801A252F823F07F1800085918000894
:10180C006B180008AD180008B3180008B3180008CE
:10181C00B3180008B3180008B3180008B318000870
:10182C00B3180008B3180008B3180008B318000860
:10183C00B3180008B3180008B318000861180008A2
:10184C0075180008794A934213D02CE03B68DB688A
:10185C003B6229E03B68DB6804333B6224E03B6875
:10186C00DB6808333B621FE03B68DB680C333B6290
:10187C001AE03B689B68002B02D104233B6213E007
:10188C003B689B68012B05D108233B627B68FA6996
:10189C001A6109E008233B627B68FA695A6103E02C
:1018AC0000233B6200E000BFBB69FF2B01D87B68C3
:1018BC0001E07B6804337B61BB69FF2B02D87B6A38
:1018CC009B0002E07B6A083B9B003B617B691A68CA
:1018DC000F213B6901FA03F3DB431A40396A3B6978
:1018EC0001FA03F31A437B691A603B685B6803F0E7
:1018FC008053002B00F0B1804D4B9B694C4A43F058
:10190C00010393614A4B9B6903F00103BB60BB6805
:10191C00484A7B6A9B08023352F82330FB607B6A8F
:10192C0003F003039B000F2202FA03F3DB43FA6874
:10193C001340FB607B68404A934213D07B683F4A5C
:10194C0093420DD07B683E4A934207D07B683D4A58
:10195C00934201D1032306E0042304E0022302E0B6
:10196C00012300E000237A6A02F003029200934004
:10197C00FA681343FB602F497B6A9B080233FA68B1
:10198C0041F823203B685B6803F48013002B06D0DE
:10199C002D4B9A682C49BB6913438B6006E02A4B8C
:1019AC009A68BB69DB43284913408B603B685B68D2
:1019BC0003F40013002B06D0234BDA682249BB69D1
:1019CC001343CB6006E0204BDA68BB69DB431E494E
:1019DC001340CB603B685B6803F40033002B06D0EC
:1019EC00194B5A681849BB6913434B6006E0164BF8
:1019FC005A68BB69DB43144913404B603B685B6816
:101A0C0003F48033002B21D00F4B1A680E49BB69AD
:101A1C0013430B6021E000BF0000321000003110B6
:101A2C000000221000002110000012100000111004
:101A3C00001002400000014000080140000C014071
:101A4C000010014000140140000401400B4B1A68C7
:101A5C00BB69DB43094913400B607B6A01337B6232
:101A6C003B681A687B6A22FA03F3002B7FF48EAE74
:101A7C0000BF00BF2C37BD4680BC7047000401403E
:101A8C0080B483B000AF78600B467B8013467B70CC
:101A9C007B78002B03D07A887B681A6103E07B8803
:101AAC001A047B681A6100BF0C37BD4680BC7047B6
:101ABC0080B586B000AF78607B68002B01D1012324
:101ACC0072E27B681B6803F00103002B00F0878037
:101ADC00924B5B6803F00C03042B0CD08F4B5B68B0
:101AEC0003F00C03082B12D18C4B5B6803F480338E
:101AFC00B3F5803F0BD1894B1B6803F40033002BEB
:101B0C006CD07B685B68002B68D101234CE27B684E
:101B1C005B68B3F5803F06D1804B1B687F4A43F46A
:101B2C00803313602EE07B685B68002B0CD17B4B01
:101B3C001B687A4A23F480331360784B1B68774A0E
:101B4C0023F4802313601DE07B685B68B3F5A02F42
:101B5C000CD1724B1B68714A43F4802313606F4B9A
:101B6C001B686E4A43F4803313600BE06B4B1B68AD
:101B7C006A4A23F480331360684B1B68674A23F46A
:101B8C00802313607B685B68002B13D0FFF72AFC63
:101B9C00386108E0FFF726FC02463B69D31A642B38
:101BAC0001D9032300E25D4B1B6803F40033002BC7
:101BBC00F0D014E0FFF716FC386108E0FFF712FCD8
:101BCC0002463B69D31A642B01D90323ECE1534B36
:101BDC001B6803F40033002BF0D100E000BF7B68DE
:101BEC001B6803F00203002B63D04C4B5B6803F0C3
:101BFC000C03002B0BD0494B5B6803F00C03082B38
:101C0C001CD1464B5B6803F48033002B16D1434B3D
:101C1C001B6803F00203002B05D07B681B69012BAA
:101C2C0001D00123C0E13D4B1B6823F0F8027B6817
:101C3C005B69DB00394913430B603AE07B681B6935
:101C4C00002B20D0364B01221A60FFF7CBFB3861FA
:101C5C0008E0FFF7C7FB02463B69D31A022B01D9F8
:101C6C000323A1E12D4B1B6803F00203002BF0D0E2
:101C7C002A4B1B6823F0F8027B685B69DB00274961
:101C8C0013430B6015E0264B00221A60FFF7AAFBEA
:101C9C00386108E0FFF7A6FB02463B69D31A022B1A
:101CAC0001D9032380E11D4B1B6803F00203002BB9
:101CBC00F0D17B681B6803F00803002B3AD07B68DB
:101CCC009B69002B19D0174B01221A60FFF78AFB76
:101CDC00386108E0FFF786FB02463B69D31A022BFA
:101CEC0001D9032360E10D4B5B6A03F00203002B67
:101CFC00F0D0012000F0CEFA1CE00A4B00221A6052
:101D0C00FFF770FB38610FE0FFF76CFB02463B6995
:101D1C00D31A022B08D9032346E100BF001002405E
:101D2C000000424280044242924B5B6A03F0020381
:101D3C00002BE9D17B681B6803F00403002B00F037
:101D4C00A6800023FB758B4BDB6903F08053002BC3
:101D5C000DD1884BDB69874A43F08053D361854BA7
:101D6C00DB6903F08053BB60BB680123FB75824BBE
:101D7C001B6803F48073002B18D17F4B1B687E4AC1
:101D8C0043F480731360FFF72DFB386108E0FFF715
:101D9C0029FB02463B69D31A642B01D9032303E1C7
:101DAC00754B1B6803F48073002BF0D07B68DB68E9
:101DBC00012B06D16F4B1B6A6E4A43F00103136271
:101DCC002DE07B68DB68002B0CD16A4B1B6A694ADF
:101DDC0023F001031362674B1B6A664A23F004036A
:101DEC0013621CE07B68DB68052B0CD1614B1B6A12
:101DFC00604A43F0040313625E4B1B6A5D4A43F076
:101E0C00010313620BE05B4B1B6A5A4A23F001037C
:101E1C001362584B1B6A574A23F0040313627B6806
:101E2C00DB68002B15D0FFF7DDFA38610AE0FFF70D
:101E3C00D9FA02463B69D31A41F28832934201D94E
:101E4C000323B1E04B4B1B6A03F00203002BEED0D3
:101E5C0014E0FFF7C7FA38610AE0FFF7C3FA02464D
:101E6C003B69D31A41F28832934201D903239BE098
:101E7C00404B1B6A03F00203002BEED1FB7D012BC0
:101E8C0005D13C4BDB693B4A23F08053D3617B6823
:101E9C00DB69002B00F08780364B5B6803F00C038A
:101EAC00082B61D07B68DB69022B46D1334B0022B7
:101EBC001A60FFF797FA386108E0FFF793FA0246C9
:101ECC003B69D31A022B01D903236DE0294B1B6804
:101EDC0003F00073002BF0D17B681B6AB3F5803FD5
:101EEC0008D1244B5B6823F400327B689B68214942
:101EFC0013434B601F4B5B6823F474127B68196AA5
:101F0C007B685B6A0B431B4913434B601B4B0122E1
:101F1C001A60FFF767FA386108E0FFF763FA0246C8
:101F2C003B69D31A022B01D903233DE0114B1B68EB
:101F3C0003F00073002BF0D035E0104B00221A6038
:101F4C00FFF750FA386108E0FFF74CFA02463B699C
:101F5C00D31A022B01D9032326E0064B1B6803F08E
:101F6C000073002BF0D11EE07B68DB69012B07D1DD
:101F7C00012319E000100240007000406000424252
:101F8C000B4B5B68FB60FB6803F480327B681B6A5D
:101F9C009A4206D1FB6803F470127B685B6A9A4222
:101FAC0001D0012300E0002318461837BD4680BD40
:101FBC000010024080B584B000AF786039607B6857
:101FCC00002B01D10123D0E06A4B1B6803F00703FF
:101FDC003A689A4210D9674B1B6823F0070265498F
:101FEC003B6813430B60634B1B6803F007033A68B1
:101FFC009A4201D00123B8E07B681B6803F002030E
:10200C00002B20D07B681B6803F00403002B05D049
:10201C00594B5B68584A43F4E06353607B681B6818
:10202C0003F00803002B05D0534B5B68524A43F472
:10203C0060535360504B5B6823F0F0027B689B68E5
:10204C004D4913434B607B681B6803F00103002B65
:10205C0040D07B685B68012B07D1474B1B6803F4AE
:10206C000033002B15D101237FE07B685B68022BCA
:10207C0007D1414B1B6803F00073002B09D10123DE
:10208C0073E03D4B1B6803F00203002B01D10123CD
:10209C006BE0394B5B6823F003027B685B68364965
:1020AC0013434B60FFF79EF9F8600AE0FFF79AF9CB
:1020BC000246FB68D31A41F28832934201D90323BA
:1020CC0053E02D4B5B6803F00C027B685B689B0054
:1020DC009A42EBD1274B1B6803F007033A689A42EC
:1020EC0010D2244B1B6823F0070222493B68134390
:1020FC000B60204B1B6803F007033A689A4201D02F
:10210C00012332E07B681B6803F00403002B08D02A
:10211C00194B5B6823F4E0627B68DB681649134358
:10212C004B607B681B6803F00803002B09D0124B33
:10213C005B6823F460527B681B69DB000E49134318
:10214C004B6000F021F802460B4B5B681B0903F057
:10215C000F030A49CB5C22FA03F3094A1360094BBB
:10216C001B681846FFF7FCF8002318461037BD46CD
:10217C0080BD00BF0020024000100240843C0008DB
:10218C00000000200400002080B487B000AF0023C2
:10219C00FB600023BB6000237B6100237B6000237A
:1021AC003B611E4B5B68FB60FB6803F00C03042B6C
:1021BC0002D0082B03D027E0194B3B6127E0FB68CA
:1021CC009B0C03F00F03174AD35C7B60FB6803F492
:1021DC008033002B10D0114B5B685B0C03F00103B8
:1021EC00114AD35CBB607B680D4A03FB02F2BB68EF
:1021FC00B2FBF3F37B6104E07B680C4A02FB03F354
:10220C007B617B693B6102E0054B3B6100BF3B6935
:10221C0018461C37BD4680BC704700BF00100240FA
:10222C0000127A009C3C0008AC3C000800093D0000
:10223C0080B400AF024B1B681846BD4680BC70478B
:10224C000000002080B500AFFFF7F2FF0246054BFF
:10225C005B681B0A03F007030349CB5C22FA03F308
:10226C00184680BD00100240943C000880B500AFB9
:10227C00FFF7DEFF0246054B5B68DB0A03F0070342
:10228C000349CB5C22FA03F3184680BD00100240D0
:10229C00943C000880B485B000AF78600A4B1B6892
:1022AC000A4AA2FB03235B0A7A6802FB03F3FB6076
:1022BC0000BFFB685A1EFA60002BF9D100BF00BFAB
:1022CC001437BD4680BC704700000020D34D62100F
:1022DC0080B582B000AF78607B68002B01D1012300
:1022EC0042E07B6893F84130DBB2002B06D17B686F
:1022FC00002283F840207868FEF792FD7B68242248
:10230C0083F841207B681B68DA687B681B6822F4C1
:10231C000052DA60786800F0FFFC7B681B681A6971
:10232C007B681B6822F490421A617B681B685A69AF
:10233C007B681B6822F02A025A617B681B68DA688A
:10234C007B681B6842F40052DA607B6800225A6496
:10235C007B68202283F841207B68202283F842206E
:10236C007B6800225A63002318460837BD4680BD9F
:10237C0080B485B000AFF860B9601346FB80FB6891
:10238C0093F84130DBB2202B21D1BB68002B02D05B
:10239C00FB88002B01D101231AE0FB68BA681A6292
:1023AC00FB68FA889A84FB68FA88DA84FB68002256
:1023BC005A64FB68212283F84120FB681B68DA68A9
:1023CC00FB681B6842F08002DA60002300E0022305
:1023DC0018461437BD4680BC704780B584B000AF3A
:1023EC00F860B9601346FB80FB6893F84230DBB2AF
:1023FC00202B12D1BB68002B02D0FB88002B01D103
:10240C0001230BE0FB6800221A63FB881A46B968AB
:10241C00F86800F0ADFA034600E0022318461037C6
:10242C00BD4680BD80B5BAB000AF78607B681B68D4
:10243C001B68C7F8E4307B681B68DB68C7F8E030C2
:10244C007B681B685B69C7F8DC300023C7F8D830A1
:10245C000023C7F8D430D7F8E43003F00F03C7F8E3
:10246C00D830D7F8D830002B0FD1D7F8E43003F0A0
:10247C002003002B09D0D7F8E03003F02003002B09
:10248C0003D0786800F08AFB5BE2D7F8D830002BD9
:10249C0000F0DE80D7F8DC3003F00103002B06D10E
:1024AC00D7F8E03003F49073002B00F0D180D7F80C
:1024BC00E43003F00103002B0BD0D7F8E03003F429
:1024CC008073002B05D07B685B6C43F001027B684A
:1024DC005A64D7F8E43003F00403002B0BD0D7F880
:1024EC00DC3003F00103002B05D07B685B6C43F000
:1024FC0002027B685A64D7F8E43003F00203002B25
:10250C000BD0D7F8DC3003F00103002B05D07B682F
:10251C005B6C43F004027B685A64D7F8E43003F038
:10252C000803002B11D0D7F8E03003F02003002B68
:10253C0005D1D7F8DC3003F00103002B05D07B6804
:10254C005B6C43F008027B685A647B685B6C002B05
:10255C0000F0F281D7F8E43003F02003002B08D010
:10256C00D7F8E03003F02003002B02D0786800F09D
:10257C0015FB7B681B685B6903F04003002B14BFE1
:10258C0001230023DBB2C7F8D4307B685B6C03F00B
:10259C000803002B03D1D7F8D430002B4FD0786828
:1025AC0000F01FFA7B681B685B6903F04003002B8B
:1025BC0041D07B681B681433C7F89C30D7F89C302B
:1025CC0053E8003FC7F89830D7F8983023F0400311
:1025DC00C7F8D0307B681B681433D7F8D020C7F805
:1025EC00A820C7F8A430D7F8A410D7F8A82041E841
:1025FC000023C7F8A030D7F8A030002BD9D17B68C6
:10260C00DB6B002B13D07B68DB6B7E4A5A637B68D9
:10261C00DB6B1846FFF738F80346002B16D07B68A7
:10262C00DB6B5B6B7A68D26B104698470EE0786870
:10263C0000F08AF90AE0786800F086F906E078681C
:10264C0000F082F97B6800225A6475E100BF73E1E7
:10265C007B681B6B012B40F04F81D7F8E43003F003
:10266C001003002B00F04881D7F8E03003F0100382
:10267C00002B00F041810023BB607B681B681B684A
:10268C00BB607B681B685B68BB60BB687B681B6856
:10269C005B6903F04003002B00F0B6807B68DB6BBA
:1026AC001B685B68A7F8BE30B7F8BE30002B00F093
:1026BC0045817B689B8DB7F8BE209A4280F03E81A5
:1026CC007B68B7F8BE20DA857B68DB6B9B69202BB7
:1026DC0000F088807B681B680C33C7F88830D7F80B
:1026EC00883053E8003FC7F88430D7F8843023F49F
:1026FC008073C7F8B8307B681B680C33D7F8B820E8
:10270C00C7F89420C7F89030D7F89010D7F89420D9
:10271C0041E80023C7F88C30D7F88C30002BD9D186
:10272C007B681B6814337B677B6F53E8003F3B6708
:10273C003B6F23F00103C7F8B4307B681B6814337C
:10274C00D7F8B420C7F88020FB67F96FD7F8802042
:10275C0041E80023BB67BB6F002BE1D17B681B6892
:10276C0014333B663B6E53E8003FFB65FB6D23F077
:10277C004003C7F8B0307B681B681433D7F8B0201F
:10278C00FA66BB66B96EFA6E41E800237B667B6E17
:10279C00002BE3D17B68202283F842207B68002247
:1027AC001A637B681B680C33FB64FB6C53E8003FBB
:1027BC00BB64BB6C23F01003C7F8AC307B681B68A0
:1027CC000C33D7F8AC20BA657B65796DBA6D41E8EE
:1027DC0000233B653B6D002BE3D17B68DB6B18461C
:1027EC00FEF717FF7B6802225A637B689A8D7B6821
:1027FC00DB8D9BB2D31A9BB21946786800F0ADF80A
:10280C009CE000BFB32A00087B689A8D7B68DB8D47
:10281C009BB2D31AA7F8CE307B68DB8D9BB2002B12
:10282C0000F08E80B7F8CE30002B00F089807B68EA
:10283C001B680C33BB63BB6B53E8003F7B637B6B48
:10284C0023F49073C7F8C8307B681B680C33D7F837
:10285C00C8207A643B64396C7A6C41E80023FB63D2
:10286C00FB6B002BE3D17B681B6814337B627B6AA8
:10287C0053E8003F3B623B6A23F00103C7F8C430C6
:10288C007B681B681433D7F8C4203A63FB62F96A7F
:10289C003A6B41E80023BB62BB6A002BE3D17B6837
:1028AC00202283F842207B6800221A637B681B6815
:1028BC000C333B613B6953E8003FFB60FB6823F042
:1028CC001003C7F8C0307B681B680C33D7F8C020E6
:1028DC00FA61BB61B969FA6941E800237B617B69E4
:1028EC00002BE3D17B6802225A63B7F8CE3019462D
:1028FC00786800F032F823E0D7F8E43003F0800376
:10290C00002B09D0D7F8E03003F08003002B03D064
:10291C00786800F0DCF814E0D7F8E43003F04003FA
:10292C00002B0ED0D7F8E03003F04003002B08D07A
:10293C00786800F01BF904E000BF02E000BF00E083
:10294C0000BFE837BD4680BD80B483B000AF78606F
:10295C0000BF0C37BD4680BC704780B483B000AF5D
:10296C0078600B467B8000BF0C37BD4680BC70473F
:10297C0080B485B000AFF860B9601346FB80FB688B
:10298C00BA689A62FB68FA889A85FB68FA88DA85D5
:10299C00FB6800225A64FB68222283F84220FB6801
:1029AC001B69002B07D0FB681B68DA68FB681B6887
:1029BC0042F48072DA60FB681B685A69FB681B681A
:1029CC0042F001025A61FB681B68DA68FB681B68FD
:1029DC0042F02002DA60002318461437BD4680BC52
:1029EC00704780B495B000AF78607B681B680C337F
:1029FC007B637B6B53E8003F3B633B6B23F490732F
:102A0C00FB647B681B680C33FA6C3A64FB63F96BF0
:102A1C003A6C41E80023BB63BB6B002BE5D17B68B0
:102A2C001B6814333B623B6A53E8003FFB61FB6954
:102A3C0023F00103BB647B681B681433BA6CFA6225
:102A4C00BB62B96AFA6A41E800237B627B6A002B9D
:102A5C00E5D17B681B6B012B19D17B681B680C3390
:102A6C00FB60FB6853E8003FBB60BB6823F01003BE
:102A7C007B647B681B680C337A6CBA617B61796907
:102A8C00BA6941E800233B613B69002BE5D17B68C7
:102A9C00202283F842207B6800221A6300BF54373F
:102AAC00BD4680BC704780B584B000AF78607B6851
:102ABC005B6AFB60FB680022DA85FB680022DA8423
:102ACC00F868FFF741FF00BF1037BD4680BD80B4EA
:102ADC0085B000AF78607B6893F84130DBB2212B76
:102AEC003ED17B689B68B3F5805F14D17B681B6912
:102AFC00002B10D17B681B6AFB60FB681B881A4695
:102B0C007B681B68C2F308025A607B681B6A9A1CBC
:102B1C007B681A6208E07B681B6A591C7A68116230
:102B2C001A787B681B685A607B68DB8C9BB2013B14
:102B3C009BB27A681946D184002B0FD17B681B6835
:102B4C00DA687B681B6822F08002DA607B681B689D
:102B5C00DA687B681B6842F04002DA60002300E010
:102B6C00022318461437BD4680BC704780B582B02E
:102B7C0000AF78607B681B68DA687B681B6822F0A2
:102B8C004002DA607B68202283F841207868FDF7E8
:102B9C001FFD002318460837BD4680BD80B58CB09C
:102BAC0000AF78607B6893F84230DBB2222B40F0A8
:102BBC00AE807B689B68B3F5805F17D17B681B691F
:102BCC00002B13D10023FB627B689B6ABB627B6882
:102BDC001B685B689BB2C3F308039AB2BB6A1A808A
:102BEC007B689B6A9A1C7B689A6226E07B689B6A6E
:102BFC00FB620023BB627B689B68B3F5805F07D0E8
:102C0C007B689B68002B0AD17B681B69002B06D163
:102C1C007B681B685B68DAB2FB6A1A7008E07B6839
:102C2C001B685B68DBB203F07F03DAB2FB6A1A70D5
:102C3C007B689B6A5A1C7B689A627B68DB8D9BB2B3
:102C4C00013B9BB27A681946D185002B5DD17B681C
:102C5C001B68DA687B681B6822F02002DA607B68EC
:102C6C001B68DA687B681B6822F48072DA607B6808
:102C7C001B685A697B681B6822F001025A617B68E9
:102C8C00202283F842207B6800225A637B681B6BEE
:102C9C00012B35D17B6800221A637B681B680C33CF
:102CAC007B617B6953E8003F3B613B6923F0100378
:102CBC007B627B681B680C337A6A3A62FB61F96948
:102CCC003A6A41E80023BB61BB69002BE5D17B6804
:102CDC001B681B6803F01003102B0AD10023FB6048
:102CEC007B681B681B68FB607B681B685B68FB6010
:102CFC00FB687B689B8D19467868FFF72EFE02E017
:102D0C007868FDF743FC002302E0002300E0022377
:102D1C0018463037BD4680BD80B584B000AF7860B2
:102D2C007B681B681B6923F440517B68DA687B68FD
:102D3C001B680A431A617B689A687B681B691A4393
:102D4C007B685B691343BB607B681B68DB6823F49F
:102D5C00B05323F00C037A681268B9680B43D36044
:102D6C007B681B685B6923F440717B689A697B689C
:102D7C001B680A435A617B681B682C4A934203D137
:102D8C00FFF774FAF86002E0FFF75CFAF860FA6893
:102D9C0013469B0013449A001A447B685B689B00A3
:102DAC00B2FBF3F3224AA2FB03235B091901FA6875
:102DBC0013469B0013449A001A447B685B689B0083
:102DCC00B2FBF3F21A4BA3FB02035B09642000FB7A
:102DDC0003F3D31A1B013233154AA2FB03235B09FD
:102DEC0003F0F0031944FA6813469B0013449A004D
:102DFC001A447B685B689B00B2FBF3F20C4BA3FBA1
:102E0C0002035B09642000FB03F3D31A1B0132336A
:102E1C00074AA2FB03235B0903F00F027B681B68C4
:102E2C000A449A6000BF1037BD4680BD003801408F
:102E3C001F85EB510EB46FF0004110B500249DB00E
:102E4C001FAB02900690079104910948094953F869
:102E5C00042B0591006802A901931B9400F0DCF986
:102E6C00029B1C701DB0BDE8104003B0704700BF42
:102E7C000C0000200802FFFF30B51446002C05465C
:102E8C001A469BB005DA8B2303604FF0FF301BB062
:102E9C0030BD4FF40273ADF80C304FF000031993B2
:102EAC000CBF234604F1FF33029305934FF6FF73D7
:102EBC0000910491ADF80E3069461E9B00F0ACF900
:102ECC00431CBCBF8B232B60002CE0D00022009B4A
:102EDC001A70DCE707B5009313460A46014603480F
:102EEC000068FFF7C9FF03B05DF804FB0C0000207D
:102EFC0003460244934200D1704703F8011BF9E7E3
:102F0C00014B1868704700BF0C00002070B50026FC
:102F1C000C4D0D4C641BA410A64209D100F076FC9C
:102F2C0000260A4D0A4C641BA410A64205D170BDA4
:102F3C0055F8043B98470136EEE755F8043B9847A3
:102F4C000136F2E7EC3C0008EC3C0008EC3C0008D5
:102F5C00F03C0008704770470A44914200F1FF337F
:102F6C0000D1704710B511F8014B914203F8014F95
:102F7C00F9D110BD38B50546002940D051F8043CB4
:102F8C000C1F002BB8BFE41800F0DEF81C4A1368C5
:102F9C0033B9636014602846BDE8384000F0DAB8F5
:102FAC00A34208D9206821188B4201BF19685B68BD
:102FBC0009182160EDE71A465B680BB1A342FAD9F8
:102FCC0011685018A0420BD120680144501883425C
:102FDC001160E0D118685B68084410605360DAE750
:102FEC0002D90C232B60D6E7206821188B4201BF35
:102FFC0019685B680918216063605460CBE738BDC1
:10300C00400A002070B50F4E0C463168054611B9C8
:10301C0000F0A8FB30602146284600F0A3FB431CBF
:10302C0003D14FF0FF34204670BDC41C24F00304C0
:10303C00A042F8D0211A284600F094FB0130F2D1BE
:10304C00EFE700BF3C0A00202DE9F843CD1C25F02A
:10305C00030508350C2D38BF0C25002D064601DB69
:10306C00A94204D90C2333600020BDE8F883DFF8B3
:10307C00D48000F069F8D8F800301C4644BB2946CF
:10308C003046FFF7BFFF431C044658D1D8F8004028
:10309C002746002F43D1002C4BD0236839463046AD
:1030AC0004EB030900F05EFB814542D121683046F8
:1030BC006D1A2946FFF7A6FF01303AD023682B443E
:1030CC002360D8F800305A6862BBC8F800700FE073
:1030DC002268521B20D40B2A17D96119A3422560F0
:1030EC0018BF5960636808BFC8F8001062514B6084
:1030FC00304600F02FF804F10B00231D20F00700E0
:10310C00C21A1CBF1B1AA350AFE76268A3420CBFC4
:10311C00C8F800205A60EBE723466468AEE73C46EB
:10312C007F68B6E71A465B68A342FBD10023536065
:10313C00DEE70C233046336000F00CF894E70560B2
:10314C00D6E700BF400A00200148FFF703BF00BFCD
:10315C00380A00200148FFF7FEBE00BF380A0020E5
:10316C002DE9F0471F468E688246BE420C469046BB
:10317C000B682DD8B1F90C2012F4906F26D065692C
:10318C00096905EB4505A3EB010905EBD5757B1C1E
:10319C004B446D109D4238BF1D46530527D529461B
:1031AC00FFF752FF064660B34A462169FFF7D4FE8B
:1031BC00A38923F4906343F08003A38126614E44DA
:1031CC0026603E466561A5EB0905A560BE4200D9A7
:1031DC003E4632464146206800F0AAFA0020A36819
:1031EC009B1BA360236833442360BDE8F0872A4609
:1031FC0000F0D6FA06460028E0D150462169FFF7C8
:10320C00B9FE0C23CAF80030A3894FF0FF3043F00D
:10321C004003A381E9E700002DE9F04F98468B8924
:10322C0007461B060D4614469DB010D50B6973B9A5
:10323C004021FFF709FF2860286130B90C233B605F
:10324C004FF0FF301DB0BDE8F08F40236B610023C1
:10325C00099320238DF8293030234FF00109CDF844
:10326C000C80DFF898818DF82A3023469A4613F8A3
:10327C00012B0AB1252AF9D1BAEB040B0BD05B4612
:10328C00224629463846FFF76BFF013000F0A78035
:10329C00099A5A4409929AF80030002B00F09F804A
:1032AC0000234FF0FF32CDE905230AF1010A049304
:1032BC0007938DF853301A935446052214F8011BCA
:1032CC004E4800F05FFA049AD8B9D00644BF2023C8
:1032DC008DF85330110744BF2B238DF853309AF8D7
:1032EC0000302A2B15D0544600204FF00A0C079AB8
:1032FC00214611F8013B303B092B4BD9B0B1079259
:10330C0014E0A0EB080309FA03F31343A246049359
:10331C00D2E7039B191D1B680391002BBBBF5B42BB
:10332C0042F0020207930793B8BF049223782E2B26
:10333C000AD163782A2B32D1039B02341A1D1B68E5
:10334C00039243EAE3730593DFF8B4A003225046DB
:10335C00217800F017FA38B14022049BA0EB0A0048
:10336C00824013430134049314F8011B06222548B0
:10337C008DF8281000F006FA002836D0224B1BBB23
:10338C00039B073323F0070308330393099B334450
:10339C0009936AE70C4601200CFB0232A8E70023D4
:1033AC004FF00A0C194601340593204610F8012BF6
:1033BC00303A092A03D9002BC6D00591C4E704463C
:1033CC0001230CFB0121F0E703AB00932A4638469E
:1033DC000E4B04A9AFF30080421C0646D6D1AB8934
:1033EC005B063FF52DAF09982CE703AB00932A46FB
:1033FC003846064B04A900F07DF8EDE7AE3C00081A
:10340C00B43C0008B83C0008000000006D31000816
:10341C002DE9F047164698468A680B690746934291
:10342C00B8BF1346336091F843200C46DDF820906A
:10343C000AB1013333602368990642BF3368023303
:10344C003360256815F0060506D104F1190AE36806
:10345C0032689B1AAB422BDC94F843302268003B59
:10346C0018BF0123920630D44146384604F143027A
:10347C00C847013023D02368226903F00603042BCC
:10348C0014BF002533684FF0000608BFE56804F14F
:10349C001A0408BFED1A54F8123C08BF25EAE5756A
:1034AC009342C4BF9B1AED18B5421AD1002008E014
:1034BC000123524641463846C847013003D14FF0EC
:1034CC00FF30BDE8F0870135C1E73020E11881F805
:1034DC0043005A1C94F845102244023382F84310DE
:1034EC00C2E70123224641463846C8470130E6D0A0
:1034FC000136D9E72DE9FF470F7E9146782F80469C
:10350C000C469A460C9E01F1430207D8622F0AD84A
:10351C00002F00F0D180582F00F0B88004F1420643
:10352C0084F842703AE0A7F16303152BF6D801A199
:10353C0051F823F099350008AD35000829350008FD
:10354C00293500082935000829350008AD35000853
:10355C0029350008293500082935000829350008C7
:10356C00AB360008D7350008653600082935000849
:10357C0029350008CD36000829350008D735000854
:10358C0029350008293500086D36000833681A1DE6
:10359C001B68326004F1420684F8423001239CE03F
:1035AC0033682068191D3160060601D51D6803E0DB
:1035BC004506FBD5B3F90050002D03DA2D236D42DF
:1035CC0084F843300A23584811E021683368080610
:1035DC0053F8045B02D4490648BFADB26F2F336079
:1035EC0014BF0A2308235048002184F8431066684E
:1035FC00002EA66005DB21682E4321F0040121601A
:10360C004BD01646B5FBF3F103FB1157C75D06F81B
:10361C00017D2F46BB420D46F4D9082B0BD12368F4
:10362C00DF0708D5236961689942DEBF302306F8AD
:10363C00013C06F1FF36921B22614B462146404667
:10364C00CDF800A003AAFFF7E3FE01304AD14FF0FA
:10365C00FF3004B0BDE8F087236843F020032360FB
:10366C007827324884F84570236831681F0651F872
:10367C00045B02D45F0648BFADB23160D90744BFCA
:10368C0043F0200323601DB11023ADE72648E9E782
:10369C00236823F020032360F6E71646BDE7336862
:1036AC002568181D616930602E061B6801D51960EC
:1036BC0002E06806FBD51980002316462361BCE79F
:1036CC00336800211A1D32601E686268304600F0B3
:1036DC0059F808B1801B606063682361002384F88B
:1036EC004330AAE73246494640462369D047013069
:1036FC00ADD023689B0713D4E068039B9842B8BFF6
:10370C001846A6E70123324649464046D0470130C9
:10371C009DD00135E36803995B1AAB42F2DCEBE711
:10372C00002504F11906F5E7BF3C0008D03C000861
:10373C00884210B501EB020402D98442234607D813
:10374C00431EA14208D011F8012B03F8012FF8E712
:10375C00014602448A4200D110BD13F8014D02F813
:10376C00014DF7E738B50023054D044608462B609C
:10377C00FDF7E0FB431C02D12B6803B1236038BD7D
:10378C00340A0020034610B5C9B2024493421846CD
:10379C0001D1002003E0047801338C42F6D110BD36
:1037AC002DE9F041074614460D4621B91146BDE8F6
:1037BC00F041FFF749BC2AB9FFF7DCFB2546284648
:1037CC00BDE8F08100F01AF88442064602D8B4EB4A
:1037DC00500FF4D821463846FFF736FC804608B91E
:1037EC004546ECE7B4422246294628BF3246FFF74D
:1037FC00B3FB29463846FFF7BDFBF1E751F8043C13
:10380C00181F002BBCBF0B58C0187047F8B500BF71
:10381C00F8BC08BC9E467047F8B500BFF8BC08BCA5
:04382C009E467047FD
:103830005465726D696E616C000000000D0A000035
:10384000256C75006E68616E2064756F6320256C51
:103850007520627974653A20746F74616C206279A6
:10386000746520256C750A006E68616E207468614D
:103870007420626169000000737461727420617069
:10388000700A00004572726F723A204461746120C0
:103890006C656E677468206F7574206F6620626F48
:1038A000756E64732E0A0000446174612070616358
:1038B0006B6564207375636365737366756C6C798F
:1038C0002E0A00004572726F723A20427566666574
:1038D00072206C656E67746820746F6F20736D6101
:1038E0006C6C2E0A000000004572726F723A20491B
:1038F0006E76616C6964207374617274206279748D
:10390000652E0A004572726F723A205061796C6FB1
:103910006164206C656E677468206F7574206F66D3
:1039200020626F756E64732E0A0000004572726F1C
:10393000723A20435243206D69736D617463682E3F
:103940000A0000004572726F723A20496E76616C0F
:10395000696420656E6420627974652E0A00000037
:103960004461746120756E7061636B65642073756A
:10397000636365737366756C6C792E0A00000000D2
:1039800055415254205458207175657565206F76E5
:103990006572666C6F772E20536F6D65206461745D
:1039A00061206D6179206265206C6F73742E0D0A41
:1039B000000000005541525420545820717565751F
:1039C0006520697320627573792E204461746120CB
:1039D0006E6F742073656E742E0D0A0053656E64ED
:1039E000696E6720646174612066726F6D20554155
:1039F00052542054582071756575652E2E2E0D0A6F
:103A0000000000004572726F723A204661696C6571
:103A10006420746F207061636B2064617461206640
:103A20006F722073656E64696E672E0A0000000075
:103A300073656E6420000000252E325820000000BF
:103A4000000000004572726F723A204661696C6531
:103A50006420746F20756E7061636B2064617461A3
:103A60002066726F6D20554152542E25640A000065
:103A7000000000000000545452205245474745536F
:103A8000000000000000891112239B322446AD572C
:103A90003665BF74488CC19D5AAFD3BE6CCAE5DB96
:103AA0007EE9F7F88110080193331A22A5562C47B6
:103AB000B7753E64C99C408DDBBF52AEEDDA64CB76
:103AC000FFF976E802218B30100299132667AF7652
:103AD0003444BD554AADC3BC588ED19F6EEBE7FA56
:103AE0007CC8F5D983310A2091121803A7772E6676
:103AF000B5543C45CBBD42ACD99E508FEFFB66EA36
:103B0000FDD874C904428D5316619F702004A91515
:103B10003227BB364CCEC5DF5EEDD7FC6888E19915
:103B20007AABF3BA85520C4397711E60A114280535
:103B3000B3373A26CDDE44CFDFFD56ECE9986089F5
:103B4000FBBB72AA06638F7214409D512225AB34D1
:103B50003006B9174EEFC7FE5CCCD5DD6AA9E3B8D5
:103B6000788AF19B87730E6295501C41A3352A24F5
:103B7000B1163807CFFF46EEDDDC54CDEBB962A8B5
:103B8000F99A708B088481951AA793B62CC2A5D395
:103B90003EE1B7F04008C919522BDB3A644EED5FA5
:103BA000766DFF7C899400859BB712A6ADD224C3A5
:103BB000BFF136E0C1184809D33B5A2AE55E6C4F85
:103BC000F77D7E6C0AA583B4188691972EE3A7F241
:103BD0003CC0B5D14229CB38500AD91B666FEF7E65
:103BE000744CFD5D8BB502A499961087AFF326E265
:103BF000BDD034C1C3394A28D11A580BE77F6E6E45
:103C0000F55C7C4D0CC685D71EE597F42880A19104
:103C10003AA3B3B2444ACD5B5669DF78600CE91D24
:103C2000722FFB3E8DD604C79FF516E4A990208124
:103C3000BBB332A2C55A4C4BD7795E68E11C680D04
:103C4000F33F7A2E0EE787F61CC495D52AA1A3B0C0
:103C50003882B193466BCF7A5448DD59622DEB3CE4
:103C6000700EF91F8FF706E69DD414C5ABB122A0E4
:103C7000B9923083C77B4E6AD5585C49E33D6A2CC4
:103C8000F11E780F00000000000000000102030494
:103C900006070809000000000102030402030405EE
:103CA000060708090A0B0C0D0E0F10100102232D38
:103CB000302B2000686C4C00656667454647003035
:103CC0003132333435363738394142434445460082
:103CD0003031323334353637383961626364656682
:043CE00000000000E0
:083CE40068C4FF7F010000002D
:043CEC00310100089A
:043CF0000D010008BA
:103CF40000127A00100000000100000010000020F3
:103D040000000000FC08002064090020CC09002009
:103D1400000000000000000000000000000000009F
:103D2400000000000000000000000000000000008F
:103D3400000000000000000000000000000000007F
:0C3D440000000000000000000000000073
:04000005080012F5E8
:00000001FF
